{
  "contractName": "CallerContract",
  "abi": [
    {
      "constant": false,
      "inputs": [],
      "name": "renounceOwnership",
      "outputs": [],
      "payable": false,
      "stateMutability": "nonpayable",
      "type": "function"
    },
    {
      "constant": true,
      "inputs": [],
      "name": "owner",
      "outputs": [
        {
          "name": "",
          "type": "address"
        }
      ],
      "payable": false,
      "stateMutability": "view",
      "type": "function"
    },
    {
      "constant": true,
      "inputs": [],
      "name": "isOwner",
      "outputs": [
        {
          "name": "",
          "type": "bool"
        }
      ],
      "payable": false,
      "stateMutability": "view",
      "type": "function"
    },
    {
      "constant": false,
      "inputs": [
        {
          "name": "newOwner",
          "type": "address"
        }
      ],
      "name": "transferOwnership",
      "outputs": [],
      "payable": false,
      "stateMutability": "nonpayable",
      "type": "function"
    },
    {
      "anonymous": false,
      "inputs": [
        {
          "indexed": false,
          "name": "oracleAddress",
          "type": "address"
        }
      ],
      "name": "newOracleAddressEvent",
      "type": "event"
    },
    {
      "anonymous": false,
      "inputs": [
        {
          "indexed": false,
          "name": "id",
          "type": "uint256"
        }
      ],
      "name": "ReceivedNewRequestIdEvent",
      "type": "event"
    },
    {
      "anonymous": false,
      "inputs": [
        {
          "indexed": false,
          "name": "ethPrice",
          "type": "uint256"
        },
        {
          "indexed": false,
          "name": "id",
          "type": "uint256"
        }
      ],
      "name": "PriceUpdatedEvent",
      "type": "event"
    },
    {
      "anonymous": false,
      "inputs": [
        {
          "indexed": true,
          "name": "previousOwner",
          "type": "address"
        },
        {
          "indexed": true,
          "name": "newOwner",
          "type": "address"
        }
      ],
      "name": "OwnershipTransferred",
      "type": "event"
    },
    {
      "constant": false,
      "inputs": [
        {
          "name": "_oracleInstanceAddress",
          "type": "address"
        }
      ],
      "name": "setOracleInstanceAddress",
      "outputs": [],
      "payable": false,
      "stateMutability": "nonpayable",
      "type": "function"
    },
    {
      "constant": false,
      "inputs": [],
      "name": "updateEthPrice",
      "outputs": [],
      "payable": false,
      "stateMutability": "nonpayable",
      "type": "function"
    },
    {
      "constant": false,
      "inputs": [
        {
          "name": "_ethPrice",
          "type": "uint256"
        },
        {
          "name": "_id",
          "type": "uint256"
        }
      ],
      "name": "callback",
      "outputs": [],
      "payable": false,
      "stateMutability": "nonpayable",
      "type": "function"
    }
  ],
  "bytecode": "0x6080604052336000806101000a81548173ffffffffffffffffffffffffffffffffffffffff021916908373ffffffffffffffffffffffffffffffffffffffff1602179055506000809054906101000a900473ffffffffffffffffffffffffffffffffffffffff1673ffffffffffffffffffffffffffffffffffffffff16600073ffffffffffffffffffffffffffffffffffffffff167f8be0079c531659141344cd1fd0a4f28419497f9722a3daafe3b4186f6b6457e060405160405180910390a3610b01806100cf6000396000f3fe608060405260043610610083576000357c0100000000000000000000000000000000000000000000000000000000900463ffffffff16806323c7e4a214610088578063715018a61461009f5780638da5cb5b146100b65780638f32d59b1461010d578063b5d73ba41461013c578063e9e17a9e14610181578063f2fde38b146101d2575b600080fd5b34801561009457600080fd5b5061009d610223565b005b3480156100ab57600080fd5b506100b461034e565b005b3480156100c257600080fd5b506100cb610489565b604051808273ffffffffffffffffffffffffffffffffffffffff1673ffffffffffffffffffffffffffffffffffffffff16815260200191505060405180910390f35b34801561011957600080fd5b506101226104b2565b604051808215151515815260200191505060405180910390f35b34801561014857600080fd5b5061017f6004803603604081101561015f57600080fd5b810190808035906020019092919080359060200190929190505050610509565b005b34801561018d57600080fd5b506101d0600480360360208110156101a457600080fd5b81019080803573ffffffffffffffffffffffffffffffffffffffff16906020019092919050505061071c565b005b3480156101de57600080fd5b50610221600480360360208110156101f557600080fd5b81019080803573ffffffffffffffffffffffffffffffffffffffff1690602001909291905050506108c4565b005b6000600260009054906101000a900473ffffffffffffffffffffffffffffffffffffffff1673ffffffffffffffffffffffffffffffffffffffff166330c0b9ec6040518163ffffffff167c0100000000000000000000000000000000000000000000000000000000028152600401602060405180830381600087803b1580156102ab57600080fd5b505af11580156102bf573d6000803e3d6000fd5b505050506040513d60208110156102d557600080fd5b8101908080519060200190929190505050905060016004600083815260200190815260200160002060006101000a81548160ff0219169083151502179055507f3ed150819af981e387450beb90ec379b8b322150dbb299d492b108c59a623e4b816040518082815260200191505060405180910390a150565b6103566104b2565b15156103ca576040517f08c379a00000000000000000000000000000000000000000000000000000000081526004018080602001828103825260208152602001807f4f776e61626c653a2063616c6c6572206973206e6f7420746865206f776e657281525060200191505060405180910390fd5b600073ffffffffffffffffffffffffffffffffffffffff166000809054906101000a900473ffffffffffffffffffffffffffffffffffffffff1673ffffffffffffffffffffffffffffffffffffffff167f8be0079c531659141344cd1fd0a4f28419497f9722a3daafe3b4186f6b6457e060405160405180910390a360008060006101000a81548173ffffffffffffffffffffffffffffffffffffffff021916908373ffffffffffffffffffffffffffffffffffffffff160217905550565b60008060009054906101000a900473ffffffffffffffffffffffffffffffffffffffff16905090565b60008060009054906101000a900473ffffffffffffffffffffffffffffffffffffffff1673ffffffffffffffffffffffffffffffffffffffff163373ffffffffffffffffffffffffffffffffffffffff1614905090565b600360009054906101000a900473ffffffffffffffffffffffffffffffffffffffff1673ffffffffffffffffffffffffffffffffffffffff163373ffffffffffffffffffffffffffffffffffffffff161415156105f4576040517f08c379a000000000000000000000000000000000000000000000000000000000815260040180806020018281038252602d8152602001807f596f7520617265206e6f7420617574686f72697a656420746f2063616c6c207481526020017f6869732066756e6374696f6e2e0000000000000000000000000000000000000081525060400191505060405180910390fd5b6004600082815260200190815260200160002060009054906101000a900460ff1615156106af576040517f08c379a00000000000000000000000000000000000000000000000000000000081526004018080602001828103825260278152602001807f546869732072657175657374206973206e6f7420696e206d792070656e64696e81526020017f67206c6973742e0000000000000000000000000000000000000000000000000081525060400191505060405180910390fd5b816001819055506004600082815260200190815260200160002060006101000a81549060ff02191690557f6b69e4f2aedf7e65a79ecaf16e8869b2b99c87e341f2c51286bfd4a7fc3b99698282604051808381526020018281526020019250505060405180910390a15050565b6107246104b2565b1515610798576040517f08c379a00000000000000000000000000000000000000000000000000000000081526004018080602001828103825260208152602001807f4f776e61626c653a2063616c6c6572206973206e6f7420746865206f776e657281525060200191505060405180910390fd5b80600360006101000a81548173ffffffffffffffffffffffffffffffffffffffff021916908373ffffffffffffffffffffffffffffffffffffffff160217905550600360009054906101000a900473ffffffffffffffffffffffffffffffffffffffff16600260006101000a81548173ffffffffffffffffffffffffffffffffffffffff021916908373ffffffffffffffffffffffffffffffffffffffff1602179055507f441e3b056b114797955165bd03bb8393fc1658a713f09225de4745a8d068bf7d600360009054906101000a900473ffffffffffffffffffffffffffffffffffffffff16604051808273ffffffffffffffffffffffffffffffffffffffff1673ffffffffffffffffffffffffffffffffffffffff16815260200191505060405180910390a150565b6108cc6104b2565b1515610940576040517f08c379a00000000000000000000000000000000000000000000000000000000081526004018080602001828103825260208152602001807f4f776e61626c653a2063616c6c6572206973206e6f7420746865206f776e657281525060200191505060405180910390fd5b6109498161094c565b50565b600073ffffffffffffffffffffffffffffffffffffffff168173ffffffffffffffffffffffffffffffffffffffff1614151515610a17576040517f08c379a00000000000000000000000000000000000000000000000000000000081526004018080602001828103825260268152602001807f4f776e61626c653a206e6577206f776e657220697320746865207a65726f206181526020017f646472657373000000000000000000000000000000000000000000000000000081525060400191505060405180910390fd5b8073ffffffffffffffffffffffffffffffffffffffff166000809054906101000a900473ffffffffffffffffffffffffffffffffffffffff1673ffffffffffffffffffffffffffffffffffffffff167f8be0079c531659141344cd1fd0a4f28419497f9722a3daafe3b4186f6b6457e060405160405180910390a3806000806101000a81548173ffffffffffffffffffffffffffffffffffffffff021916908373ffffffffffffffffffffffffffffffffffffffff1602179055505056fea165627a7a72305820780f33d287bcf1022686750fafef0df37e46769ee1e2734796df9b973dffa3b60029",
  "source": "pragma solidity 0.5.0;\r\nimport \"./EthPriceOracleInterface.sol\";\r\nimport \"openzeppelin-solidity/contracts/access/Ownable.sol\";\r\ncontract CallerContract is Ownable {\r\n    uint256 private ethPrice;\r\n    EthPriceOracleInterface private oracleInstance;\r\n    address private oracleAddress;\r\n    mapping(uint256=>bool) myRequests;\r\n    event newOracleAddressEvent(address oracleAddress);\r\n    event ReceivedNewRequestIdEvent(uint256 id);\r\n    event PriceUpdatedEvent(uint256 ethPrice, uint256 id);\r\n    function setOracleInstanceAddress (address _oracleInstanceAddress) public onlyOwner {\r\n      oracleAddress = _oracleInstanceAddress;\r\n      oracleInstance = EthPriceOracleInterface(oracleAddress);\r\n      emit newOracleAddressEvent(oracleAddress);\r\n    }\r\n    function updateEthPrice() public {\r\n      uint256 id = oracleInstance.getLatestEthPrice();\r\n      myRequests[id] = true;\r\n      emit ReceivedNewRequestIdEvent(id);\r\n    }\r\n    function callback(uint256 _ethPrice, uint256 _id) public onlyOracle {\r\n      require(myRequests[_id], \"This request is not in my pending list.\");\r\n      ethPrice = _ethPrice;\r\n      delete myRequests[_id];\r\n      emit PriceUpdatedEvent(_ethPrice, _id);\r\n    }\r\n    modifier onlyOracle() {\r\n      require(msg.sender == oracleAddress, \"You are not authorized to call this function.\");\r\n      _;\r\n    }\r\n}\r\n",
  "sourcePath": "/home/mwisni/loomAndLoomjsInstalled/EthPriceOracle/caller/contracts/CallerContract.sol",
  "compiler": {
    "name": "solc",
    "version": "0.5.0+commit.1d4f565a.Emscripten.clang"
  },
  "schemaVersion": "3.4.13",
  "updatedAt": "2023-03-15T22:07:27.278Z",
  "networkType": "ethereum",
  "devdoc": {
    "methods": {}
  },
  "userdoc": {
    "methods": {}
  }
}